:100000000C9434000C943E000C943E000C943E0082
:100010000C943E000C943E000C943E000C943E0068
:100020000C943E000C943E000C943E000C943E0058
:100030000C943E000C943E000C943E000C943E0048
:100040000C943E000C943E000C943E000C943E0038
:100050000C943E000C943E000C943E000C943E0028
:100060000C943E000C943E0011241FBECFEFD4E050
:10007000DEBFCDBF0E9440000C9455000C940000E0
:10008000539A81E021E090E0882319F05B98892F52
:1000900002C05B9A822F3FEF49E658E13150404061
:0E00A0005040E1F700C00000EFCFF894FFCF12
:00000001FF
